:020000040800F2
:100000000050002025030008F9020008FB02000848
:10001000FD020008FF0200080103000800000000C4
:1000200000000000000000000000000003030008C2
:10003000050300080000000007030008090300088A
:100040006D0300086D0300086D0300086D030008D0
:100050006D0300086D0300086D0300086D030008C0
:100060006D0300086D0300086D0300086D030008B0
:100070006D0300086D0300086D0300086D030008A0
:100080006D0300086D0300086D0300086D03000890
:100090006D0300086D0300086D0300086D03000880
:1000A0006D0300086D0300086D0300086D03000870
:1000B0006D0300086D0300086D0300086D03000860
:1000C0006D0300086D0300086D0300086D03000850
:1000D0006D030008110300086D0300086D0300089C
:1000E0006D0300086D0300086D03000800000000A8
:1000F0000000000000000000000000000000000000
:0C01000000000000000000005FF808F1A3
:10010C0010B5054C237833B9044B13B10448AFF345
:10011C0000800123237010BD3C040020000000006F
:10012C004415000808B5034B1BB103490348AFF352
:10013C00008008BD000000004004002044150008A9
:10014C0082B00A4B9A6942F020029A619A6902F0D5
:10015C0020020092009A9A6942F004029A619B690B
:10016C0003F004030193019B02B07047001002409E
:10017C0072B6FEE708B50A480A4B03604FF4E13348
:10018C00436000238360C36003610C22426183617E
:10019C00C36100F0EBFE00B908BDFFF7E9FF00BF3B
:1001AC00580400200038014000B591B028220021ED
:1001BC0006A801F0FFF80023019302930393049324
:1001CC000593012206924FF4803307930A92022280
:1001DC000D920E934FF4E0130F9306A800F010FB52
:1001EC0080B90F23019302210291002303934FF452
:1001FC0080620492059301A800F034FD20B911B07F
:10020C005DF804FBFFF7B4FFFFF7B2FF08B500F091
:10021C00CFF8FFF7C9FFFFF793FFFFF7ABFFFEE740
:10022C0082B00E4B9A6942F001029A619A6902F00F
:10023C0001020092009ADA6942F08052DA61DB69BD
:10024C0003F080530193019B054A536823F0E0634C
:10025C0043F00073536002B0704700BF00100240BF
:10026C000000014030B587B0002302930393049340
:10027C00059302681B4B9A4201D007B030BD03F5C1
:10028C0058439A6942F480429A619A6902F4804216
:10029C000092009A9A6942F004029A619B6903F0F9
:1002AC0004030193019B4FF4007302930223039305
:1002BC00032305930C4D02A9284600F079F94FF45D
:1002CC008063029300240394049402A9284600F04E
:1002DC006FF922462146252000F0A0F8252000F0D9
:1002EC00D5F8CAE70038014000080140FEE7FEE7F8
:1002FC00FEE7FEE7FEE770477047704708B500F071
:10030C0069F808BD08B5024800F0ECFE08BD00BF56
:10031C005804002070470000FFF7FCFF0B480C4905
:10032C000C4A002302E0D458C4500433C4188C4245
:10033C00F9D3094A094C002301E013600432A242AC
:10034C00FBD301F013F8FFF761FF704700000020AA
:10035C003C040020981500083C040020A804002050
:10036C00FEE7000010B504460E4B18784FF47A7374
:10037C00B3FBF0F30C4A1068B0FBF3F000F094F808
:10038C0068B90F2C01D901200AE0002221464FF058
:10039C00FF3000F043F8054B1C60002000E001200A
:1003AC0010BD00BF04000020000000200800002049
:1003BC0008B5074A136843F010031360032000F0DC
:1003CC001BF80F20FFF7CEFFFFF72AFF002008BD18
:1003DC0000200240034A1168034B1B780B44136046
:1003EC00704700BFA004002004000020014B1868D7
:1003FC00704700BFA0040020074AD36823F4E063D1
:10040C001B041B0C000200F4E060034343F0BF63C9
:10041C0043F40033D360704700ED00E000B5194B96
:10042C00DB68C3F30223C3F1070CBCF1040F28BF34
:10043C004FF0040C03F1040EBEF1060F18D9033B68
:10044C004FF0FF3E0EFA0CFC21EA0C0199400EFA1B
:10045C0003F322EA0303194300280BDB0901C9B299
:10046C0000F1604000F5614080F800135DF804FB7A
:10047C000023E5E700F00F000901C9B2024B195443
:10048C00F4E700BF00ED00E014ED00E0002807DB0E
:10049C0000F01F02400901239340024A42F8203029
:1004AC00704700BF00E100E00138B0F1807F0BD253
:1004BC004FF0E0235861054AF02182F82310002008
:1004CC00986107221A6170470120704700ED00E027
:1004DC0090F82130DBB2022B06D004238363002377
:1004EC0080F82030012070470268136823F00E0357
:1004FC0013600268136823F001031360036CC16B73
:10050C00012202FA03F34B6080F82120002380F8CB
:10051C00203018467047000008B590F82130DBB247
:10052C00022B03D004238363012008BD02681368E7
:10053C0023F00E0313600268136823F001031360A9
:10054C000368194A934214D0143293421FD01432C8
:10055C0093421ED0143293421ED0143293421ED0BA
:10056C001432934202D04FF0807203E04FF48012A9
:10057C0000E001220D4B5A60012380F8213000234A
:10058C0080F82030436B6BB198470020CDE71022E8
:10059C00F0E74FF48072EDE74FF48052EAE74FF446
:1005AC008032E7E70020C0E708000240000002406C
:1005BC0070B582B00024A446A6E0804DAA4210D0AB
:1005CC0007D97F4DAA420CD005F58035AA4208D038
:1005DC0013E0A5F58015AA4203D005F57025AA42B3
:1005EC0007D18A68002A58D0012A51D043610824C7
:1005FC0003E0A5F58015AA42F3D0BEF1FF0F4ED84B
:10060C000646BEF1FF0F4CD84FEA8C0233680F251B
:10061C00954023EA050304FA02F2134333604B6856
:10062C0013F0805F6ED0674B9A6942F001029A61B9
:10063C009B6903F001030193019B4FEA9C02951CFB
:10064C00614B53F825600CF003039D000F23AB4066
:10065C0026EA03065D4B984229D003F58063984245
:10066C0000F08E8003F58063984200F08B8003F5D8
:10067C008063984219D004231AE0CC68BDE7CC689B
:10068C000434BAE7CC680834B7E7CC680C34B4E768
:10069C0003610824B1E70024AFE70424ADE7061D8D
:1006AC00AFE7ACF108029200B0E7032300E00023AF
:1006BC00AB4033430232444D45F822304B6813F4BF
:1006CC00801F61D0424A936843EA0E0393604B68E3
:1006DC0013F4001F5ED03E4AD36843EA0E03D36086
:1006EC004B6813F4003F5BD0394A536843EA0E035E
:1006FC0053604B6813F4803F58D0354A136843EA73
:10070C000E0313600CF1010C0A6832FA0CF353D08F
:10071C00012303FA0CF302EA030E33EA0202F1D1CD
:10072C004A68122A3FF649AF122A3FF666AF01A576
:10073C0055F822F0EF05000887060008910600081E
:10074C00A3060008070600080706000807060008AD
:10075C000706000807060008070600080706000839
:10076C000706000807060008070600080706000829
:10077C0007060008070600088B0600089706000805
:10078C00012395E7022393E7114A936823EA0E03AA
:10079C0093609CE70E4AD36823EA0E03D3609FE76D
:1007AC000B4A536823EA0E035360A2E7084A136806
:1007BC0023EA0E031360A5E702B070BD00002210FF
:1007CC000000311000100240000001400008014000
:1007DC000004014082B0084B1B68084AA2FB0323AB
:1007EC005B0A00FB03F3019300BF019B5A1E0192AD
:1007FC00002BF9D102B0704700000020D34D6210DD
:10080C00002800F0F18170B582B00446036813F043
:10081C00010F2CD0994B5B6803F00C03042B1DD0FB
:10082C00964B5B6803F00C03082B12D06368B3F58E
:10083C00803F41D0002B55D103F1804303F50433A5
:10084C001A6822F480321A601A6822F480221A6024
:10085C0037E08A4B5B6813F4803FE7D0874B1B680B
:10086C0013F4003F03D06368002B00F0BF812368B2
:10087C0013F0020F75D0814B5B6813F00C0F5FD037
:10088C007E4B5B6803F00C03082B54D02369002BC0
:10089C0000F08A807A4B01221A60FFF7A7FD05460B
:1008AC00764B1B6813F0020F75D1FFF79FFD401BB1
:1008BC000228F5D903209EE1704A136843F4803373
:1008CC001360636843B3FFF791FD05466B4B1B68E0
:1008DC0013F4003FCBD1FFF789FD401B6428F5D9F9
:1008EC00032088E1B3F5A02F09D0644B1A6822F4D9
:1008FC0080321A601A6822F480221A60E1E703F150
:10090C008043A3F53C331A6842F480221A601A68BB
:10091C0042F480321A60D4E7FFF768FD0546574B66
:10092C001B6813F4003FA2D0FFF760FD401B642846
:10093C00F5D903205FE1514B5B6813F4803FA5D1DF
:10094C004E4B1B6813F0020F03D02369012B40F0B0
:10095C004F814A4A136823F0F803616943EAC103E3
:10096C001360236813F0080F33D0A369002B5CD0FD
:10097C00434B0122C3F88024FFF738FD05463F4B5B
:10098C005B6A13F0020F21D1FFF730FD401B0228E8
:10099C00F5D903202FE1394A136823F0F803616974
:1009AC0043EAC1031360DCE7354B00221A60FFF702
:1009BC001DFD0546314B1B6813F0020FD1D0FFF71C
:1009CC0015FD401B0228F5D9032014E10120FFF787
:1009DC0001FF236813F0040F00F09680274BDB69AE
:1009EC0013F0805F34D1254BDA6942F08052DA6122
:1009FC00DB6903F080530193019B0125214B1B689C
:100A0C0013F4807F26D0E368012B3DD0002B53D10B
:100A1C0003F1804303F504331A6A22F001021A62CF
:100A2C001A6A22F004021A6233E0154B0022C3F852
:100A3C008024FFF7DBFC0546104B5B6A13F0020FBA
:100A4C00C7D0FFF7D3FC401B0228F5D90320D2E016
:100A5C000025D3E70B4A136843F480731360FFF748
:100A6C00C5FC0646074B1B6813F4807FCBD1FFF700
:100A7C00BDFC801B6428F5D90320BCE000100240AB
:100A8C0000004242007000405F4A136A43F00103C9
:100A9C001362E36833B3FFF7A9FC06465A4B1B6A93
:100AAC0013F0020F2FD1FFF7A1FC801B41F288330A
:100ABC009842F3D903209EE0052B09D0524B1A6AB9
:100ACC0022F001021A621A6A22F004021A62E0E7AA
:100ADC004D4B1A6A42F004021A621A6A42F0010281
:100AEC001A62D6E7FFF782FC0646474B1B6A13F0E7
:100AFC00020F08D0FFF77AFC801B41F28833984232
:100B0C00F3D9032077E0E5B9E369002B72D03E4AB4
:100B1C00526802F00C02082A56D0022B17D03B4B1D
:100B2C0000221A66FFF762FC0446374B1B6813F071
:100B3C00007F47D0FFF75AFC001B0228F5D9032091
:100B4C0059E0314AD36923F08053D361DCE72F4B52
:100B5C0000221A66FFF74AFC05462B4B1B6813F064
:100B6C00007F06D0FFF742FC401B0228F5D903207A
:100B7C0041E0236AB3F5803F1AD023494B6823F434
:100B8C007413226A606A024313434B601F4B0122A9
:100B9C001A66FFF72BFC04461B4B1B6813F0007FF7
:100BAC000ED1FFF723FC001B0228F5D9032022E00D
:100BBC00154A536823F40033A1680B435360DCE7F8
:100BCC00002018E0002016E0012B16D00E4B5B68BD
:100BDC0003F48031226A914211D103F47013626ADA
:100BEC0093420ED1002006E001207047012002E064
:100BFC00012000E0002002B070BD0120FBE70120C5
:100C0C00F9E70120F7E700BF001002400000424264
:100C1C000F4B5B6803F00C02082A01D00D4870479B
:100C2C00C3F383420C49885C13F4803F0BD0084B10
:100C3C005B68C3F34043094AD35C064A02FB00F0ED
:100C4C00B0FBF3F07047064B03FB00F0704700BF9E
:100C5C000010024000127A00741500088415000878
:100C6C0000093D00002800F0A08070B50D46044638
:100C7C00524B1B6803F007038B420BD24F4A13688D
:100C8C0023F007030B431360136803F007038B4235
:100C9C0040F08D80236813F0020F17D013F0040F6F
:100CAC0004D0474A536843F4E0635360236813F05D
:100CBC00080F04D0424A536843F460535360404ACF
:100CCC00536823F0F003A1680B435360236813F0BF
:100CDC00010F31D06368012B20D0022B25D0384A6C
:100CEC00126812F0020F64D035494A6822F00302F0
:100CFC0013434B60FFF77AFB0646314B5B6803F0FE
:100D0C000C036268B3EB820F16D0FFF76FFB801BEE
:100D1C0041F288339842F0D9032045E0284A126802
:100D2C0012F4003FE0D101203EE0254A126812F097
:100D3C00007FD9D1012037E0204B1B6803F007035B
:100D4C00AB420AD91D4A136823F007032B431360E7
:100D5C00136803F00703AB422DD1236813F0040F83
:100D6C0006D0174A536823F4E063E1680B435360E1
:100D7C00236813F0080F07D0114A536823F460530B
:100D8C00216943EAC1035360FFF742FF0C4B5B68D8
:100D9C00C3F303130B4AD35CD8400B4B18600B4BBB
:100DAC001868FFF7DFFA002070BD012070470120A2
:100DBC00FAE70120F8E70120F6E700BF0020024027
:100DCC00001002405C150008000000200800002004
:100DDC00014B1868704700BF0000002008B5FFF7F2
:100DEC00F7FF044B5B68C3F30223034AD35CD84080
:100DFC0008BD00BF001002406C15000808B5FFF7D5
:100E0C00E7FF044B5B68C3F3C223034AD35CD840AF
:100E1C0008BD00BF001002406C150008026802F10A
:100E2C000C0353E8003F23F490730C3242E800317A
:100E3C000029F3D1026802F1140353E8003F23F0B8
:100E4C000103143242E800310029F3D1036B012B6A
:100E5C0005D0202380F842300023036370470268DA
:100E6C0002F10C0353E8003F23F010030C3242E86C
:100E7C0000310029F3D1ECE790F84130DBB2212BA3
:100E8C0001D0022070478368B3F5805F17D0036AE6
:100E9C005A1C02621A7803685A60C38C9BB2013BDD
:100EAC009BB2C3844BB90268D36823F08003D36030
:100EBC000268D36843F04003D36000207047036995
:100ECC00002BE4D1036A1B880268C3F30803536048
:100EDC00036A02330362E0E710B504460268136943
:100EEC0023F44053C1680B431361836802691343B5
:100EFC0042691A430168CB6823F4B05323F00C0306
:100F0C001343CB600268536923F4407381690B432C
:100F1C0053610268134B9A4220D0FFF75FFF0246E1
:100F2C0002EB820202EB820263689B00B2FBF3F2DB
:100F3C000D48A0FB02314909642303FB11231B015B
:100F4C003233A0FB03235B0903F0F00202EB011226
:100F5C0003F00F03216813448B6010BDFFF74EFFA5
:100F6C000246DDE7003801401F85EB5160B310B538
:100F7C00044690F8413013B3242384F8413022689E
:100F8C00D36823F40053D3602046FFF7A5FF2268F3
:100F9C00136923F4904313612268536923F02A03E5
:100FAC0053612268D36843F40053D360002060641B
:100FBC00202384F8413084F84230606310BD80F8FF
:100FCC004030FFF74FF9D7E701207047704708B55D
:100FDC000168CA6822F04002CA60202280F84120D1
:100FEC00FFF7F4FF002008BD7047704708B5406A52
:100FFC000023C385C384FFF7F8FF08BD704790F842
:10100C004230DBB2222B69D18368B3F5805F4FD0BD
:10101C00826AB3F5805F04D0002B56D10369002B94
:10102C0053D103685B681370836A01338362C38D89
:10103C009BB2013B9BB2C385002B51D100B583B051
:10104C000268D36823F02003D3600268D36823F4CA
:10105C008073D3600268536923F00103536120232A
:10106C0080F8423000234363036B012B33D1002300
:10107C000363026802F10C0353E8003F23F01003F2
:10108C000C3242E800310029F3D103681A6812F0DF
:10109C00100F06D0002201921A6801925B6801932E
:1010AC00019B818DFFF7AAFF002003B05DF804FBC4
:1010BC000269002AACD1826A03685B68C3F3080337
:1010CC001380836A02338362B1E703685B6803F0C1
:1010DC007F031370A8E7FFF787FFE5E7022070474F
:1010EC000020704730B583B0044602681368D0689E
:1010FC00516913F00F0505D113F0200F02D010F039
:10110C00200F19D12DB111F0010119D110F4907FDC
:10111C0016D1216B01297DD013F0800F03D010F074
:10112C00800F40F0188113F0400F03D010F0400FE7
:10113C0040F0158103B030BD2046FFF760FFF9E7A2
:10114C0013F0010F06D010F4807F03D0626C42F0D4
:10115C000102626413F0040F04D019B1626C42F006
:10116C000202626413F0020F04D019B1626C42F0F7
:10117C000402626413F0080F07D010F0200F00D1A6
:10118C0019B1626C42F008026264626C002AD1D020
:10119C0013F0200F02D010F0200F29D123685B69C7
:1011AC0003F04003626C12F0080F00D163B32046C9
:1011BC00FFF734FE23685B6913F0400F20D02268E0
:1011CC0002F1140353E8003F23F04003143242E8C9
:1011DC0000310029F3D1E36B73B1634A5A63E06BBE
:1011EC00FFF79AF90028A5D0E06B436B9847A1E76D
:1011FC002046FFF704FFD1E72046FFF7F6FE99E7FC
:10120C002046FFF7F2FE95E72046FFF7EEFE00239F
:10121C0063648FE713F0100F3FF47EAF10F0100FE4
:10122C003FF47AAF00230193136801935368019341
:10123C00019B536913F0400F51D0E26B13685B684C
:10124C009BB2002B3FF476AFA18D99427FF672AF23
:10125C00E3859369202B37D0226802F10C0353E805
:10126C00003F23F480730C3242E800310029F3D1A3
:10127C00226802F1140353E8003F23F001031432F7
:10128C0042E800310029F3D1226802F1140353E83B
:10129C00003F23F04003143242E800310029F3D11F
:1012AC00202384F8423000232363226802F10C03CC
:1012BC0053E8003F23F010030C3242E800310029C0
:1012CC00F3D1E06BFFF704F902236363A18DE38D87
:1012DC009BB2C91A89B22046FFF790FE2AE7A18D6E
:1012EC00E38D9BB2C91A89B2E38D9BB2002B3FF4FC
:1012FC0021AF00293FF41EAF226802F10C0353E822
:10130C00003F23F490730C3242E800300028F3D1F4
:10131C00226802F1140353E8003F23F00103143256
:10132C0042E800300028F3D1202384F84230002317
:10133C002363226802F10C0353E8003F23F01003EF
:10134C000C3242E800300028F3D1022363632046BC
:10135C00FFF754FEEEE62046FFF78EFDEAE6204648
:10136C00FFF735FEE6E600BFF90F000870B50D4E2D
:10137C000D4D761BB61006D0002455F8043B0134F5
:10138C009847A642F9D1094E094D00F0D5F8761BC5
:10139C00B61006D0002455F8043B01349847A642F9
:1013AC00F9D170BD8C1500088C1500089415000837
:1013BC008C150008830730B548D0541E002A3FD046
:1013CC000346CAB201E0013C3AD303F8012B9D0756
:1013DC00F9D1032C2DD9CDB245EA05250F2C45EAC0
:1013EC00054536D9A4F1100222F00F0C03F1200EA2
:1013FC00E6444FEA121C03F1100242E9045542E99B
:10140C00025510327245F8D10CF1010214F00C0F98
:10141C0003EB021204F00F0C13D0ACF1040323F015
:10142C0003030433134442F8045B9342FBD10CF0E6
:10143C0003042CB1CAB21C4403F8012B9C42FBD10F
:10144C0030BD64461346002CF4D1F9E7034614462C
:10145C00BFE71A46A446E0E7024B13B1024800F07E
:10146C0005B87047000000008514000800230146F1
:10147C001A46184600F01AB838B5084B084D5B1BD5
:10148C009C1007D0043B1D44013C55F80439984787
:10149C00002CF9D1BDE8384000F054B8981500087C
:1014AC0094150008704700BF704700BF2DE9F04746
:1014BC00DFF87CA00646DAF8000098460F46914605
:1014CC00FFF7F0FF1B4B1B68D3F8484124B365684A
:1014DC001F2D26DC5EB96B1C0235DAF80000636048
:1014EC0044F82570FFF7E0FF0020BDE8F0870123EA
:1014FC0004EB8501C1F88890D4F88821AB401A43DD
:10150C00022EC4F88821C1F80881E4D1D4F88C21CA
:10151C001343C4F88C31DEE703F5A674C3F84841D5
:10152C00D5E7DAF80000FFF7BFFF4FF0FF30DCE73C
:10153C003804002088150008F8B500BFF8BC08BCBA
:10154C009E467047F8B500BFF8BC08BC9E46704775
:10155C000000000000000000010203040607080957
:10156C000000000001020304020304050607080939
:10157C000A0B0C0D0E0F10100102000010000020C1
:08158C0065140008310100089C
:041594000D0100083D
:1015980000127A00010000001000000000000000A6
:1015A80000000000FC02002064030020CC0300209F
:1015B8000000000000000000000000000000000023
:1015C8000000000000000000000000000000000013
:1015D8000000000000000000000000000000000003
:1015E80000000000000000000000000000000000F3
:1015F80000000000000000000000000000000000E3
:1016080000000000000000000000000000000000D2
:1016180000000000000000000000000000000000C2
:1016280000000000000000000000000000000000B2
:1016380000000000000000000000000000000000A2
:101648000000000000000000010000000000000091
:101658000E33CDAB34126DE6ECDE05000B00000056
:101668000000000000000000000000000000000072
:101678000000000000000000000000000000000062
:101688000000000000000000000000000000000052
:101698000000000000000000000000000000000042
:0C19C8000000000000000000A40400204B
:0400000508000325C7
:00000001FF
